:020000040800F2
:10000000D8160020DD01000883200008251500080F
:10001000812000086D020008012500080000000092
:100020000000000000000000000000004501000882
:100030006F02000800000000890100081D2100086F
:10004000F7010008F7010008F7010008F7010008B0
:10005000F7010008F7010008F7010008F7010008A0
:10006000F7010008F7010008F7010008F701000890
:10007000F7010008F7010008F7010008F701000880
:10008000F7010008F7010008F7010008F701000870
:10009000F7010008F7010008F7010008F701000860
:1000A000F7010008F7010008F7010008F701000850
:1000B000F7010008F7010008F7010008F701000840
:1000C000F7010008F7010008F7010008F701000830
:1000D000F7010008F7010008F7010008F701000820
:1000E000F7010008F7010008F7010008F701000810
:1000F000F7010008F7010008F7010008F701000800
:10010000F7010008F7010008F7010008F7010008EF
:10011000F7010008F701000899210008A52100084F
:10012000F7010008F7010008F7010008F7010008CF
:10013000DFF80CD000F088F800480047412500089F
:10014000D8160020224B19680868B0E8F00F80F339
:100150000988BFF36F8F4FF0000080F311884EF0D5
:100160000D0E70470000000006480068006880F32C
:10017000088862B661B6BFF34F8FBFF36F8F00DFA1
:1001800000BF00BF08ED00E0EFF30980BFF36F8F01
:100190000F4B1A6820E9F00F106008B54FF05000BF
:1001A00080F31188BFF34F8FBFF36F8F02F080FD94
:1001B0004FF0000080F31188BDE808401968086816
:1001C000B0E8F00F80F30988BFF36F8F704700BF6E
:1001D00020000020EFF305807047000006488047AC
:1001E00006480047FEE7FEE7FEE7FEE7FEE7FEE71C
:1001F000FEE7FEE7FEE7FEE7972100083101000871
:1002000040EA01039B0703D009E008C9121F08C098
:10021000042AFAD203E011F8013B00F8013B521E18
:10022000F9D27047D2B201E000F8012B491EFBD28F
:1002300070470022F6E710B513460A4604461946F1
:10024000FFF7F0FF204610BD064C074D06E0E068C2
:1002500040F0010394E8070098471034AC42F6D30D
:10026000FFF76AFF80410008A0410008FEE77047E1
:100270007047000070B5044600F010F90546601C98
:1002800002D004480078044400F008F9401BA04262
:10029000FAD370BD100000202DE9F84FDFF8C891A7
:1002A000002409F1040A0AF1040B23460F270BF17D
:1002B000040ED1E00125A54006EA0502AA4276D146
:1002C000DFF8A8C14E68A6EB0C0866452BD00DDC04
:1002D000032E34D005DC36B3012E19D0022E2FD1D7
:1002E0001BE0112E16D0122E2AD119E0B8F5881F66
:1002F00019D006DCB8F5803F15D0B8F5801F1FD1A6
:1003000011E0B8F5001F0ED0B8F5041F18D10AE0AF
:10031000CB6815E0CB681B1D12E0CB6808330FE0FB
:10032000CB680C330CE08B682BB1012B4FF008032A
:1003300003D0456104E0042302E0056100E00023EE
:10034000FF2A01D8064601E000F104064FEA8405C1
:1003500001D9A5F12005D6F8008007FA05FC28EAA6
:100360000C0803FA05F548EA0508C6F800804D6850
:10037000ED0070D53E4DAE6946F00106AE61AD6947
:1003800024F0030605F0010500953A4D06EB050C37
:10039000DCF80850A607360F07FA06F825EA080524
:1003A000DFF8D480404503D14FF0000825E052E04B
:1003B000DFF8C880404502D14FF001081DE0DFF8AA
:1003C000C080404502D14FF0020816E0DFF8B4804B
:1003D000404502D14FF003080FE0DFF8AC80404504
:1003E00002D14FF0040808E0DFF8A080404502D1B8
:1003F0004FF0050801E04FF0060808FA06F848EA51
:100400000508CCF808804D68D9F80060ED034D462A
:1004100001D5164300E096432E604D68DAF800607F
:10042000AD03554601D5164300E096432E604D6856
:10043000DBF80060ED025D4601D5164300E096430F
:100440002E604D68DEF80060AD02754601D516439A
:1004500000E096432E60641C0A681646E2407FF472
:1004600029AFBDE8F88F0000000401400000111022
:10047000001002400000014000080140000C014053
:10048000001001400014014000180140001C014010
:100490000AB1016170470904FBE700000148806868
:1004A0007047000010000020024881680278114463
:1004B0008160704710000020074810B5016841F0C6
:1004C00010010160032000F095F8002000F006F80C
:1004D00000F03EF8002010BD0020024000B50146AB
:1004E00087B00022362000F065F8362000F054F87E
:1004F0001348C16941F01001C161C06905A900F04C
:1005000010000690684600F01DF900F03BF90D4917
:100510004000B0FBF1F10D480B4A491E02604160FA
:1005200040F2E7320021C0E90321816000F07AFB4C
:1005300010B1012007B000BD044800F0D7FBF9E777
:100540000010024040420F00001000409C050020B7
:100550000F4808B5816941F001018161816901F0AD
:1005600001010091C16941F08051C161C06900225F
:1005700000F0805000900F21901E00F01BF80548FD
:10058000416821F0E06141F00071416008BD000068
:100590000010024000000140002809DB00F01F02AB
:1005A000012191404009800000F1E020C0F80011D5
:1005B00070470000F0B40E4B1B680C46C3F30223D7
:1005C000C3F10705042D00D90425191D072901D2FF
:1005D000002300E0DB1E012606FA05F1491E21403A
:1005E00099409E40761E16403143F0BC01F089BF11
:1005F0000CED00E0064900F0070208684FF6FF0323
:10060000184040EA0220034A104308607047000087
:100610000CED00E00000FA052DE9F0470F4605005B
:1006200061D0434E306800F00700B84209D230680C
:1006300020F0070038433060306800F00700B8420F
:1006400051D128683B4C810712D5400703D560681B
:1006500040F4E06060602878000703D5606840F4EB
:10066000605060606068A96820F0F0000843606036
:100670002878C00728D06868012810D0216802288F
:1006800010D0890700292EDA616821F003010143A7
:100690006160FFF703FF804641F288390DE0216871
:1006A0008903EFE78901EDE7FFF7F8FEA0EB08010A
:1006B000494502D90320BDE8F0876068696800F009
:1006C0000C00B0EB810FEFD1306800F00700B842AA
:1006D0000BD9306820F0070038433060306800F0F4
:1006E0000700B84201D00120E5E72878400705D58A
:1006F0006068E96820F4E0600843606028780007DB
:1007000006D56068296920F4605040EAC100606045
:1007100000F058F86168084AC1F30311515CC84001
:100720000649086006480068FFF7D8FE0020C2E7C7
:100730000020024000100240444100081C0000203C
:10074000140000200F2202600C4A536803F00303D8
:100750004360536803F0F0038360536803F4E0637D
:10076000C36052684FF4E06303EAD20202610448B6
:10077000006800F0070008607047000000100240A9
:10078000002002400448054900684968044AC1F352
:100790000221515CC84070471C000020001002403C
:1007A000544100080448054900684968044AC1F3F7
:1007B000C221515CC84070471C000020001002405C
:1007C0005441000812A185B00FC98DE80F0014A094
:1007D000144A006804905168134801F00C03042B7C
:1007E00010D0082B0ED1C1F38343C9031DF80300B9
:1007F0000AD5516804AAC1F34041515C0A4A5043EA
:10080000B0FBF1F005B0704708494843FAE7000033
:1008100002030405060708090A0B0C0D0E0F101041
:10082000010200000010024000127A0000093D00A1
:100830002DE9F84F040070D02078C04DC00749D092
:100840006868C0F38100012807D06868C0F38100A0
:10085000022809D16868C00306D52868800339D505
:1008600060680028E7D035E06068B0F5803F0BD0C5
:1008700010B1B0F5A02F11D0286820F48030286086
:10088000286820F4802002E0286840F48030286046
:10089000606890B1FFF702FE06460AE0286840F45F
:1008A00080202860F0E700BFFFF7F8FD801B642878
:1008B00073D828688003F7D50CE0FFF7EFFD0646F4
:1008C00005E000BFFFF7EAFD801B6428F0D8286828
:1008D0008003F7D420789A4E80074FF001094FF03B
:1008E000000839D5686810F00C0F07D06868C0F3AD
:1008F0008100022809D16868C00306D428688007EF
:1009000014D52069012808D110E02069B0B1C6F8DB
:100910000090FFF7C3FD074605E00AE1FFF7BEFDC3
:10092000C01B0228C4D828688007F7D528686169E9
:1009300020F0F80040EAC10028600DE0C6F8008011
:10094000FFF7ACFD074604E0FFF7A8FDC01B022837
:1009500023D828688007F7D4207800072CD5794859
:10096000A169D9B1C0F80090FFF798FD074604E0EF
:10097000FFF794FDC01B02280FD8686A8007F7D5DF
:1009800071484FF4FA510068B0FBF1F0009000BFDD
:100990000098411E0091FAD20EE080E0C0F800807D
:1009A000FFF77CFD074604E0FFF778FDC01B022837
:1009B00075D8686A8007F7D42078400760D5E86961
:1009C0000027C00008D4E86940F08050E861E86979
:1009D000012700F0805000905C480168C90513D4DD
:1009E0000168834641F480710160FFF757FD82463C
:1009F00006E000BFFFF752FDA0EB0A0064284ED8C6
:100A0000DBF80000C005F5D5E06801280AD008B180
:100A1000052813D0286A20F001002862286A20F0F7
:100A2000040002E0286A40F001002862E06841F218
:100A3000883B98B1FFF732FD82460BE0286A40F010
:100A400004002862EEE700BFFFF728FDA0EB0A01D3
:100A500059455AD8286A8007F6D50CE0FFF71EFDE5
:100A6000824605E0FFF71AFDA0EB0A0159454CD874
:100A7000286A8007F6D41FB1E86920F08050E86149
:100A8000E06988B36968C1F38101022944D0022872
:100A9000C6F8608004D0FFF701FD044638E034E07A
:100AA000FFF7FCFC074604E0FFF7F8FCC01B022838
:100AB0002BD828688001F7D4206AB0F5803F05D193
:100AC0006868A16820F4003008436860D4E9080130
:100AD0000843696821F4741108436860C6F860909F
:100AE000FFF7DCFC044606E025E000BFFFF7D6FC7C
:100AF000001B022809D828688001F7D51BE000BF39
:100B0000FFF7CCFC001B022802D90320BDE8F88FB8
:100B100028688001F4D40EE00128F7D06868226AC2
:100B200000F48031914204D1616A00F4701088426F
:100B300001D00120EAE70020E8E7000000100240B1
:100B400000004242800442421C000020007000402D
:100B50007047704710B590F83C20012A22D001223E
:100B600080F83C20CA688C6822F4407222434C68AA
:100B700022F4806222430C6822F4006222430C6952
:100B800022F4805222434C6922F400522243C96964
:100B9000002322F480420A4301684A6480F83C3012
:100BA000002010BD022010BD70B590F83C20012A35
:100BB0002CD0012480F83C40022280F83D200368BC
:100BC0005A689D6822F070060A6832435A60104BDA
:100BD00002689A420ED00F4B9A420BD0B2F1804F6E
:100BE00008D00D4B9A4205D00C4B9A4202D00C4BC8
:100BF0009A4204D1496825F080031943916080F836
:100C00003D40002180F83C10084670BD022070BDB8
:100C1000002C014000340140000400400008004066
:100C2000000C004010B5040003D094F83D0010B152
:100C300007E0012010BD002084F83C00204600F0B1
:100C40001FF8022084F83D00211D206801F0B0FA51
:100C5000012084F8460084F83E0084F83F0084F8C0
:100C6000400084F8410084F8420084F8430084F88E
:100C7000440084F8450084F83D00002010BD0000C9
:100C800008B5174A01681748914207D1816941F4B4
:100C900000618161806900F400601EE0B1F1804F65
:100CA00014D0114A914219D1C16941F02001C161AA
:100CB000C069002200F02000009005213720FFF7D6
:100CC00079FCBDE808403720FFF766BCC16941F0F8
:100CD0000101C161C06900F00100009008BD000081
:100CE000002C0140001002400014004090F83D101C
:100CF000012901D001207047022180F83D100168D0
:100D0000CA6842F00102CA6000680E4988420ED0EB
:100D10000D4988420BD0B0F1804F08D00B49884272
:100D200005D00B49884202D00A49884204D1816823
:100D300001F00701062903D0016841F001010160BB
:100D400000207047002C01400034014000040040A6
:100D500000080040000C004070B5044690F83C00CC
:100D6000012817D0012584F83C50022084F83D006A
:100D70002068826822F0770222F47F42826008684D
:100D8000502830D00DDC20284DD005DC98B3102839
:100D90003BD148E0022070BD302844D0402834D1F7
:100DA00039E0602828D0702806D0B0F5805F2CD0BC
:100DB000B0F5005F29D10AE0CB68D1E901212068B4
:100DC00001F049FA2068816841F0770109E0CB68B9
:100DD000D1E90121206801F03EFA2068816841F4E0
:100DE0008041816011E0CA684968206801F008FB11
:100DF0005021206807E016E0CA684968206801F0C1
:100E000010FB6021206801F030FA84F83D5000208A
:100E100084F83C0070BDCA684968206801F0F0FAA7
:100E200040212068EFE7226801461046EBE72DE9F4
:100E3000F0410D46040003D094F83D0018B108E0DD
:100E40000120BDE8F081002084F83C00204600F03D
:100E500041F8022084F83D002068816844F20702CE
:100E600091438160211D206801F0A2F922689068F9
:100E70009169166A2B68AF69034340F203308143DE
:100E800041EA0721A868EF6908434FF6FC4188430F
:100E9000E96840EA0720014328692F6A000140EA17
:100EA0000730084369686D6926F0220646EA051591
:100EB000294393602268906154F8460B0162012037
:100EC00004F81F09E0752076E0762077A0750020F1
:100ED000B7E7000010B586B00021009101910291A2
:100EE0000391304C02683049C0233048A24211D1EE
:100EF000CA6942F00202CA61CA6902F0020204929F
:100F00008A6942F004028A618969009301F0040150
:100F100004912EE0264CA24216D1C86940F004008C
:100F2000C861C86900F004000490886940F00800B6
:100F300088618869694600F00800049000931D48A4
:100F4000FFF7AAF906B010BD1B4CA24213D1CA6923
:100F500042F00802CA61CA6902F0080204928A6972
:100F600042F004028A61896901F0040104910321BD
:100F700000916946E4E711488242E3D1886940F470
:100F800000508861886900F400500490886940F03E
:100F9000100088618869694600F010000490009391
:100FA0000748CDE70004004000100240000801405F
:100FB00000080040000C0140000C004000340140DB
:100FC0000010014070B590F83E60044690F83F5024
:100FD00090F8423090F84320022021B104290ED02D
:100FE000012E1BD114E0012E18D1012B16D184F84B
:100FF0003E0084F8420001220021206820E0012DFB
:101000000CD1012A0AD184F83F0084F8430014E08F
:10101000012D03D1012B01D1012A01D0012070BD86
:1010200084F83E0084F83F0084F8420084F84300CE
:1010300001220021206801F001F901220421206829
:1010400001F0FCF82068016841F001010160002016
:1010500070BD704770B50446006801694FF0000527
:10106000C943890715D4C168C943890711D4E91E4A
:10107000016101202077206880698007204602D026
:10108000FFF7E7FF04E000F0F1F8204600F080F9F8
:10109000257720680169C943490717D4C168C94346
:1010A000490713D46FF00401016102202077206802
:1010B000806910F4407F204602D0FFF7CAFF04E0A9
:1010C00000F0D4F8204600F063F925772068016924
:1010D000C943090716D4C168C943090712D46FF080
:1010E00008010161042020772068C069800720463C
:1010F00002D0FFF7AEFF04E000F0B8F8204600F0A1
:1011000047F9257720680169C943C90617D4C16822
:10111000C943C90613D46FF010010161082020777C
:101120002068C06910F4407F204602D0FFF791FF8D
:1011300004E000F09BF8204600F02AF925772068AB
:101140000169C943C90708D1C168C943C90704D1A6
:10115000891E0161204600F01DF920680169C9431C
:10116000090609D4C168C943090605D46FF0800196
:1011700001612046FFF7ECFC20680169C94349067C
:1011800009D4C168C943490605D46FF04001016123
:10119000204600F009F920680169C94389060BD48B
:1011A000C168C943890607D46FF020010161204658
:1011B000BDE87040FFF7CDBC70BD000010B586B033
:1011C00000210091019102910391234B0268234970
:1011D000022423489A4210D18A6942F008028A61A7
:1011E0008969039401F0080104914114CDE90014C8
:1011F0006946FFF751F806B010BDB2F1804FFAD141
:101200008A6942F008028A618A6902F0080204923F
:101210008A6942F004028A618969039401F0040139
:10122000049140F60841CDE900146946FFF734F80F
:101230004FF40040CDE9000469460A480394FFF7E3
:101240002BF80948416821F4407141F0E06141F414
:1012500040714160CFE70000002C014000100240C7
:10126000000C01400008014000000140704770B5CB
:10127000044690F83C000D4601280AD0012084F86D
:101280003C0042B1042A18D0082A2AD00C2A4DD199
:1012900039E0022070BD206800F0F0FF206881690D
:1012A00041F0080181612068816921F004018161B8
:1012B000206881692A69114311E0206801F00EF865
:1012C0002068816941F4006181612068816921F4AD
:1012D00080618161206881692A6941EA0221816116
:1012E00024E0206801F030F82068C16941F008016D
:1012F000C1612068C16921F00401C1612068C16930
:101300002A69114311E0206801F052F82068C16990
:1013100041F40061C1612068C16921F48061C1614B
:101320002068C1692A6941EA0221C161002084F86C
:101330003C0070BD10B5040003D094F83D0010B11E
:1013400007E0012010BD002084F83C00204600F09A
:101350001EF8022084F83D00211D206800F028FFBF
:10136000012084F8460084F83E0084F83F0084F8A9
:10137000400084F8410084F8420084F8430084F877
:10138000440084F8450084F83D00002010BD7047FB
:101390007047000000680349884201D1FFF784B814
:1013A0007047000000100040704770B5040004D082
:1013B00094F83900002510B106E0012070BD84F8D2
:1013C0003850204600F022F8242084F839002068A4
:1013D000C16821F40051C160204601F035F8206851
:1013E000016921F4904101612068416921F02A01DD
:1013F00041612068C16841F40051C160E56320206B
:1014000084F8390084F83A00002070BDF0B585B04A
:101410000024009401940294039403683A4F02203C
:101420003A4903223A4D4602BB421AD18B6943F432
:1014300080438B618B6903F4804304938B6943F091
:1014400004038B618969039201F004010491010294
:10145000CDE9001069462846FEF71EFFCDE900647D
:101460001DE02C4FBB4221D1CB6943F40033CB614B
:10147000CB6903F4003304938B6943F004038B615D
:101480008969039201F0040104910421CDE900105F
:1014900069462846FEF700FF0820CDE900046946AA
:1014A00028460294FEF7F8FE05B0F0BD1A4DAB4297
:1014B000FAD1CB6943F48023CB61CB6903F4802359
:1014C00004938B6943F010038B618969134D01F01C
:1014D0001001CDE90321CDE9006069462846FEF7F9
:1014E000DBFEE814CDE90004694628460294FEF7C5
:1014F000D3FE0B48416821F0300141F0E06141F03A
:1015000010014160D0E700000038014000100240A7
:101510000008014000440040004800400010014025
:1015200000000140FEE70000F0B50F4C0746002127
:101530006088401E83B22088401E82B2084600F0B8
:10154000C9F900260BE0002504E0384600F0C2FA95
:101550006D1CADB26088A842F7D8761CB6B2208860
:10156000B042F0D8F0BD00008000002000B500F0CF
:101570009BF9034800885DF804EB00F0ABBA00006B
:10158000000000202DE9F041141A641CA6B25C1A78
:10159000641C5B1E521EA7B29BB292B2DDF818808B
:1015A00000F098F900250AE0002404E0404600F02D
:1015B00091FA641CA4B2B442F8D36D1CADB2BD4222
:1015C000F2D3064841880088491EBDE8F041401E1C
:1015D0008BB282B20021084600F07CB98000002066
:1015E00030B51B4885B0816941F004018161816992
:1015F00001F004010491816941F010018161816968
:1016000001F010010491816941F02001816180693C
:10161000012500F0200004904FF48070CDE9000512
:101620000324694603940B48FEF736FE2003CDE9F8
:101630000005694603940848FEF72EFE0420CDE914
:101640000005694603940548FEF726FE05B030BD47
:101650000010024000080140001001400014014049
:1016600010B5FFF7BDFF00F00FF9112000F042FAAE
:101670007820FEF7FFFDB12000F03CFA012000F0D9
:1016800021FA2C2000F01EFA2D2000F01BFAB220C7
:1016900000F030FA012000F015FA2C2000F012FAC8
:1016A0002D2000F00FFAB32000F024FA012000F002
:1016B00009FA2C2000F006FA2D2000F003FA012090
:1016C00000F000FA2C2000F0FDF92D2000F0FAF9CE
:1016D000B42000F00FFA072000F0F4F9C02000F069
:1016E00009FAA22000F0EEF9022000F0EBF98420C4
:1016F00000F0E8F9C12000F0FDF9C52000F0E2F9A2
:10170000C22000F0F7F90A2000F0DCF9002000F018
:10171000D9F9C32000F0EEF98A2000F0D3F92A208D
:1017200000F0D0F9C42000F0E5F98A2000F0CAF9F1
:10173000EE2000F0C7F9C52000F0DCF90E2000F023
:10174000C1F9362000F0D6F9C82000F0BBF9E0203E
:1017500000F0D0F90F2000F0B5F91A2000F0B2F92E
:101760000F2000F0AFF9182000F0ACF92F2000F0A6
:10177000A9F9282000F0A6F9202000F0A3F92220E2
:1017800000F0A0F91F2000F09DF91B2000F09AF94D
:10179000232000F097F9372000F094F9002000F0A2
:1017A00091F9072000F08EF9022000F08BF910204B
:1017B00000F088F9E12000F09DF90F2000F082F997
:1017C0001B2000F07FF90F2000F07CF9172000F0BB
:1017D00079F9332000F076F92C2000F073F92920F4
:1017E00000F070F92E2000F06DF9302000F06AF959
:1017F000302000F067F9392000F064F93F2000F054
:1018000061F9002000F05EF9072000F05BF9032089
:1018100000F058F9102000F055F92A2000F06AF97C
:10182000002000F04FF9002000F04CF9002000F0FB
:1018300049F97F2000F046F92B2000F05BF90020E9
:1018400000F040F9002000F03DF9002000F03AF9E6
:101850009F2000F037F9F02000F04CF9012000F053
:1018600031F9F62000F046F9002000F02BF93A207B
:1018700000F040F9052000F025F9292000F03AF9A0
:10188000BDE8104000F014B870B5064C4FF4005598
:1018900065616420FEF7EEFC2561BDE870403220F2
:1018A000FEF7E8BC001001400B46024600F012B8FB
:1018B00007482C2101810021817180210180418014
:1018C0002A2141812B218181C821362000F022B9B3
:1018D000800000202DE9F041DFF8588007461C46C3
:1018E00015460E46B8F80A0000F004F9380A00F070
:1018F000E9F8BF1CF8B200F0E5F8280A00F0E2F8B9
:10190000AD1CE8B200F0DEF8B8F80C0000F0F2F818
:10191000300A00F0D7F8F61CF0B200F0D3F8200A35
:1019200000F0D0F8E41CE0B200F0CCF8BDE8F041E3
:1019300000F0EAB8800000202DE9FF4F83B08B460D
:1019400010A9DFF8E89091E83100203800F0FF0896
:101950000BEB0400401E83B20398924600EB540048
:10196000B9F80010401E019182B259460398FFF762
:10197000B1FF05B3002546E00C2C05D02C4800EB48
:1019800008100026475D11E02A4808EB480100EBEB
:101990008100F6E7F80702D00AF0FF0001E00698A0
:1019A000C0B200F08FF87F08761CF6B2B6EB540F89
:1019B000F0D36D1CEDB2A542DED326E00C2C08D08E
:1019C0001B4800EB08100026475D0BEB050000905C
:1019D00014E0184808EB480100EB8100F3E700BF72
:1019E000A9F800A0F80706D0009881B20398304407
:1019F00080B2FFF7BBFD7F08761CF6B2B6EB540F42
:101A0000EED36D1CEDB2A542D8D30198A9F8000021
:101A100009484188008807B0491EBDE8F04F401EC4
:101A20008BB282B200210846FFF754BF00000020AD
:101A300064340008F02F0008800000202DE9FF4FDB
:101A400083B00026DDF840801D4634464FF0010A81
:101A50004FEA5807DFF86490DFF864B028E0281BED
:101A6000401EC1B20A2000F09DFD0599B1FBF0F0C7
:101A70000A21B0FBF1F201FB120026B9691E8C426B
:101A800001DA28B101263030C0B28DE8010502E04C
:101A900020228DE804050398B9F8003007FB040004
:101AA00080B2BBF800200499FFF746FF641CE4B243
:101AB000AC42D4D307B0BDE8F08F00000200002094
:101AC00000000020024A4FF48071116000F0DABA81
:101AD0001008014010B5064904464FF480700860B4
:101AE000200A00F0CFFAE0B2BDE8104000F0CABA18
:101AF00010080140034A4FF480711160C0B200F039
:101B0000C1BA00001408014001480089FFF7F2BF84
:101B10008000002010B50C46FFF7ECFFE0B2BDE8F6
:101B20001040FFF7CFBF000010B596B01C2211493E
:101B30006846FEF765FB0021684600F047FD0E4C45
:101B40000C491C2220601C3107A8FEF759FB00211C
:101B500007A800F03BFD074960601C2238310EA841
:101B6000FEF74EFB00210EA800F030FDA06016B07D
:101B700010BD0000F0400008040000202DE9F04FE7
:101B800085B000243548009401940294039481693F
:101B900041F010018161816901F0100104918169B6
:101BA00041F020018161816901F020010491816986
:101BB00041F004018161816901F0040104918169AE
:101BC00041F0080181618069DFF8948000F008002D
:101BD00043F23F050490002229464046FEF758FC98
:101BE000DFF880904FF49877002239464846FEF798
:101BF0004FFCDFF874A0002204215046FEF748FC99
:101C0000DFF868B0002230215846FEF741FC00950D
:101C1000022601250396CDE9015469464046FEF7A8
:101C20003BFB00970396CDE9015469464846FEF711
:101C300033FB0420CDE90005CDE902466946504654
:101C4000FEF72AFB3020CDE90005CDE902466946C2
:101C50005846FEF721FB05B0BDE8F08F00100240AA
:101C6000001001400008014000140140000C014038
:101C700010B596B000240F941094119412941394FC
:101C80001C2108A81494FEF7D4FA20216846FEF718
:101C9000D0FA27482549C0E900148460C460046173
:101CA00044618461FEF7BEFF08B1FEF7E1FA4FF42C
:101CB00080500F900FA91E48FFF74EF808B1FEF7AD
:101CC000D7FA1B48FFF736FB08B1FEF7D1FA139499
:101CD00013A917481494FEF767FF08B1FEF7C8FA76
:101CE0006020CDE908040A940B940C940D94002212
:101CF00008A90F480E94FFF7BAFA08B1FEF7B8FA30
:101D000000944FF40050CDE90440029401940394F0
:101D1000694607480794FEF71DFF08B1FEF7A8FAC9
:101D20000348FFF74BFA16B010BD0000002C01402D
:101D3000E402002010B58EB00024079408940994A2
:101D40000A940B941C2168460C94FEF772FA2848FA
:101D50004FF08041C0E900148460C4600461846174
:101D6000FEF760FF08B1FEF783FA4FF4805007904A
:101D700007A91F48FEF7F0FF08B1FEF779FA1C48E3
:101D8000FFF7D8FA08B1FEF773FA0B940BA91848BD
:101D90000C94FEF709FF08B1FEF76AFA6020CDE95E
:101DA000000402940022694611480494FFF75FFA88
:101DB00008B1FEF75DFA042269460D48FFF757FAAD
:101DC00008B1FEF755FA082269460948FFF74FFAAD
:101DD00008B1FEF74DFA0C2269460548FFF747FAAD
:101DE00008B1FEF745FA0248FFF7E8F90EB010BD5A
:101DF0002C03002010B58CB024216846FEF719FA98
:101E000000241448099412490A94C0E9001484601B
:101E1000C460046184610120CDE90004CDE90204BD
:101E20000494CDE90540079469460A480894FEF7F2
:101E3000FEFF08B1FEF71CFA099409A905480A94A7
:101E4000FEF7B2FE002801D0FEF712FA0CB010BD6A
:101E5000000400407403002010B58CB024216846B3
:101E6000FEF7E7F900241448099412490A94C0E9DE
:101E700000148460C460046184610120CDE9000421
:101E8000CDE902040494CDE90540079469460A4867
:101E90000894FEF7CCFF08B1FEF7EAF9099409A906
:101EA00005480A94FEF780FE002801D0FEF7E0F90D
:101EB0000CB010BD00080040BC03002010B58CB071
:101EC00024216846FEF7B5F9002416480994144900
:101ED0000A94C0E900144FF6FF71C0E902410461A1
:101EE00084610320CDE900040120CDE902040A2128
:101EF0000491CDE90540CDE9074169460948FEF75F
:101F000096FF08B1FEF7B4F9099409A905480A94A7
:101F1000FEF74AFE002801D0FEF7AAF90CB010BD6A
:101F2000000C0040040400201CB500240F4800945D
:101F30000D490194016040F2E731C0E90114491CE8
:101F40008461C160FEF76EFE08B1FEF791F92020B2
:101F5000CDE9000469460548FEF726FE002801D0B9
:101F6000FEF786F91CBD0000001400404C04002060
:101F700010B58CB024216846FEF75BF900241548A3
:101F8000099413490A94C0E900148460C460046190
:101F9000446184610120CDE90004CDE90204049488
:101FA000CDE90540079469460A480894FEF73FFFCB
:101FB00008B1FEF75DF9099409A906480A94FEF7ED
:101FC000F3FD002801D0FEF753F90CB010BD00005E
:101FD00000340140940400200C4810B50A49016007
:101FE0004FF4E1314160002181600C22C160C0E901
:101FF00004128161C161FFF7D8F9002803D0BDE860
:102000001040FEF735B910BD00380140DC04002057
:102010000C4810B50A4901604FF4E13141600021DC
:1020200081600C22C160C0E904128161C161FFF7C7
:10203000BCF9002803D0BDE81040FEF719B910BD67
:10204000004400401C0500200C4810B50A490160FE
:102050004FF4E1314160002181600C22C160C0E990
:1020600004128161C161FFF7A0F9002803D0BDE827
:102070001040FEF7FDB810BD004800405C05002090
:10208000FEE77047F0B508210A4E4B02084C0422C7
:10209000351F070601D5236100E0636132602A60C5
:1020A0004006000E491E11F0FF01F2D1F0BD000004
:1020B00000100140141401404FF4FA74204600F05F
:1020C00079FAFBE7012000F075FAFBE708B5002775
:1020D000104CDFF844800C264FF6FF75206827600F
:1020E00000B2D8F8001009680096C1F3001101B1E0
:1020F000281A82B2012105230846FFF79FFC3220EF
:1021000000F058FA00211423322208460095FFF708
:1021100039FAE3E7240C00400404002010B55020F5
:1021200080F31188BFF34F8FBFF36F8F00F09AFEDB
:1021300018B104494FF080500860002080F31188E6
:1021400010BD000004ED00E030B58FB028216846D6
:10215000FEF76FF814210AA8FEF76BF801210804B6
:10216000CDE900100024029402250491CDE9075026
:102170004FF4E01009906846FEF75AFB0F20CDE9B6
:102180000A056802CDE90C4002210AA80E94FEF768
:1021900043FA0FB030BD70470148FEF75BBF000047
:1021A0009C0500200148FEF755BF00004C040020AC
:1021B000F0B502681C4B1D4D1D4E1E4F1E4C4FF0BE
:1021C000804C984209D0A04207D0604505D0A84273
:1021D00003D0B04201D0B84204D122F0700E4A6858
:1021E00042EA0E02984209D0A04207D0604505D0CD
:1021F000A84203D0B04201D0B84203D122F44075C6
:10220000CA682A434D6922F080022A4302608A6824
:10221000C2620A688262984201D0A04201D1096973
:10222000016301214161F0BD002C01400004004028
:1022300000080040000C00400034014010B501F0DF
:102240001F030121046A99408C430462016A9A4089
:102250001143016210BD10B5846842EA032224F4E0
:102260007F440A432243826010BD826822F07002DC
:102270000A4342F00701816070470000F0B5026A2E
:1022800022F001020262036A42688469124E24F05D
:1022900073050C682C4323F002058B682B430D4D0E
:1022A000A84201D0B04205D123F00807CB683B43D8
:1022B00023F00403A84201D0B04205D14D6922F4B5
:1022C000407215438A692A434260846149684163C8
:1022D0000362F0BD002C014000340140F0B5026AF9
:1022E00022F010020262026A436884690D6824F4D5
:1022F000E64444EA05248D6822F0200242EA0512F1
:102300000F4D104EA84201D0B04206D1CF6822F046
:10231000800242EA071222F04002A84201D0B042F5
:1023200007D14D6923F4406343EA85038D6943EA8D
:10233000850343608461496881630262F0BD0000E7
:10234000002C014000340140F0B5026A22F4807292
:102350000262026A4368C46922F4007224F07305C1
:102360000C68124E2C438D6842EA05220E4DA8429D
:1023700001D0B04206D1CF6822F4006242EA0722BF
:1023800022F48062A84201D0B04207D14D6923F403
:10239000405343EA05138D6943EA05134360C46162
:1023A0004968C1630262F0BD002C01400034014065
:1023B00030B5026A22F480520262046A4268C3693C
:1023C0000D6823F4E64343EA05238D6824F40054A2
:1023D00044EA0534084DA84202D0084DA84204D171
:1023E0004D6922F4804242EA85124260C361496825
:1023F0000164046230BD0000002C01400034014043
:1024000010B5036A046A24F001040462846924F0AC
:10241000F00444EA021423F00A020A4384610262CF
:1024200010BD10B5036A23F0100303628369046AC8
:1024300023F4704343EA023224F0A00343EA01117B
:102440008261016210BD000070B504460068016938
:10245000E26821F44051114301612169A0680843F9
:10246000616908432168CA6841F20C639A430243D8
:10247000CA6020684169A26921F440711143416139
:102480001E492068884202D1FEF78CF901E0FEF770
:1024900079F900EBC00101EB001260686421800053
:1024A000B2FBF0F3B3FBF1F36FF018067343B2FB2A
:1024B000F0F5B2FBF0F605EB8305322303EB0515CF
:1024C000B5FBF1F5B6FBF1F605F0F00505EB0615E9
:1024D000B2FBF0F6B2FBF0F0B0FBF1F06FF01802D7
:1024E000504306EB800003EB0010B0FBF1F02168D5
:1024F00000F00F002844886070BD000000380140E3
:10250000FEE70907090E002804DB00F1E02080F84F
:102510000014704700F00F0000F1E02080F8141D57
:10252000704702E008C8121F08C1002AFAD170479C
:102530007047002001E001C1121F002AFBD1704743
:10254000FDF7BAFFFFF700FEFFF718FBFFF790FB60
:10255000FFF7F0FBFFF74EFCFFF77EFCFFF7AEFC4A
:10256000FFF706FDFFF738FDFFF752FDFFF76CFDA3
:10257000FFF7DAFCFFF774F84FF6FF70FEF7D4FFB1
:102580003C210448FEF71EFDFFF7CEFA00F019F8D3
:10259000FEE700000404002001460020842900D04A
:1025A000C81C70470246012000E05043491EC9B2D2
:1025B000FBD2704710B500B9012000F015FB0020D8
:1025C00010BD10B500F036FB002010BD7FB50D46E4
:1025D00004464169B0F9080081B1A16971B1FFF702
:1025E000DBFFD4E905128DE80700D4E900102B4683
:1025F000226900F00CFC039004B070BDFFF7CCFF23
:1026000003A9CDE90001208A2B4682B2D4E900104B
:1026100000F0D0FB012801D00020EDE70398EBE7A4
:102620002DE9F041184C0F46054666692068001DEB
:1026300000F016FA38B9206890F82C100120884074
:10264000A1698143A161681C07D137B12168BDE848
:10265000F0410E48091D00F047BA20683544B542E4
:102660004560216805D2A068BDE8F041091D00F071
:1026700023BA6068091D00F01FFA206B854200D262
:102680002563BDE8F081000020000020C006002086
:102690002DE9F041054600F033FA2E4C2069401C2C
:1026A000206120682C4F10B1E06940B32DE0256017
:1026B0002069012829D1002606EB860007EB80005F
:1026C00000F0ECF9761C072EF6D323488C3000F08E
:1026D000E5F92148A03000F0E1F91F48B43000F0DE
:1026E000DDF91D48C83000F0D9F91B48DC3000F096
:1026F000D5F919488C3060601430A06005E020687E
:10270000E96AC06A884200D82560E06A401CE0623D
:10271000E96A0120A26988401043A06101EB8100B1
:1027200007EB8000291D00F0DFF900F009FAE069ED
:1027300000280CD02068E96AC06A884207D207499D
:102740004FF080500860BFF34F8FBFF36F8FBDE82D
:10275000F081000020000020E405002004ED00E0EE
:1027600010B5044690F8510058B101280CD0022849
:102770000FD0502080F31188BFF34F8FBFF36F8FBE
:10278000FEE7206B00F0F0F92046BDE8104000F0B5
:10279000EBB910BD10484FF44061420706D0C01D90
:1027A0000D4920F00700411AC1F540610B4A002392
:1027B0000144C2E900030839103A21F00701116011
:1027C0004B600B600B1AC0E9001393604FF00040A0
:1027D0005360D06070470000D40600206C000020D9
:1027E000144E154CA6F1C8074FF08058DFF84C90F6
:1027F00012E000BF00F084F9F068C568281D00F001
:102800002FF92069401E2061E068401EE06000F062
:1028100097F92846FFF7A4FFE0680028EAD1386856
:102820000128F9D9C9F80080BFF34F8FBFF36F8F2C
:10283000F2E70000AC0600202000002004ED00E0DC
:102840002DE9F0479A46DDE9098481466FF00303DC
:10285000206B03EB82021044089D20F007067007EE
:1028600007D0502080F31188BFF34F8FBFF36F8FD5
:10287000FEE723180A5C83F834200A5C12B1401C7E
:102880001028F6D3002784F84370072D00D30625BF
:10289000E562C4E91157201D00F00BF904F118009E
:1028A00000F007F92461C5F107006462A061E764E4
:1028B00084F8507052464946304600F0BFF8206018
:1028C000B8F1000F01D0C8F80040BDE8F087000063
:1028D00030B5114900E011460A688242FBD34B68CB
:1028E0005C18844203D14068184448600846436835
:1028F0001C18944209D1084C103C2468A24209D00B
:1029000052681A4442600A6812680260814200D02C
:10291000086030BD0460F9E76C000020064841689B
:10292000096829B14168C968C96849680163704785
:102930004FF0FF31FAE7000020000020084840680F
:10294000401C4FF0500080F3118804D0BFF34F8F2C
:10295000BFF36F8FFEE7BFF34F8FBFF36F8FFEE7BD
:10296000740000202DE9F0410546002700F098F999
:10297000314E306808B9FFF70DFFF06805424BD1C2
:10298000C5B3083568070ED005F00700C0F1080090
:102990000544680707D0502080F31188BFF34F8F9C
:1029A000BFF36F8FFEE72DB37068854234D822489D
:1029B000103001460C6801E020460C466168A942CF
:1029C00002D221680029F7D131688C4224D00768EF
:1029D0002168016060680837411B10290FD9601910
:1029E000420708D0502080F31188BFF34F8FBFF308
:1029F0006F8FFEE710E041606560FFF769FF616877
:102A00007068401A7060B268904200D2B060F0689E
:102A100001430020C4E9000100F088FA780707D0DC
:102A2000502080F31188BFF34F8FBFF36F8FFEE705
:102A30003846BDE8F08100005C00002010B5031F9F
:102A40004FF080741C601B1F21F001011960191FD9
:102A5000024B0B60143940380A6010BD3D29000854
:102A6000D0E9013201699A60D0E901235A604A68CD
:102A7000824201D182684A60002202610868401ED9
:102A80000860086870470000034B036003F15400BE
:102A900008608020106070479000002000F108015D
:102AA0004FF0FF32C0E90112C160016100210160F5
:102AB000704700210161704730B50B685A1C02D085
:102AC00000F1080202E0026904E022465468256829
:102AD0009D42FAD953684B6099608A6051600861E1
:102AE0000168491C016030BD42684A6093688B6090
:102AF00093685960916008610168491C01607047E2
:102B0000502080F31188BFF34F8FBFF36F8F0A49B6
:102B10004868401C486001280CD10848006810F043
:102B2000FF0F07D0502080F31188BFF34F8FBFF302
:102B30006F8FFEE7704700007400002004ED00E096
:102B40000849486828B1401E486001D180F31188C7
:102B50007047502080F31188BFF34F8FBFF36F8F02
:102B6000FEE700007400002070B5002827D0144D47
:102B7000A0F108046168E868014207D1502080F3A1
:102B80001188BFF34F8FBFF36F8FFEE722683AB112
:102B9000502080F31188BFF34F8FBFF36F8FFEE794
:102BA0008143616000F07CF860686968084468608F
:102BB0002046FFF78DFEBDE8704000F0B7B970BD4C
:102BC0005C0000204FF0E020002101618161054997
:102BD0004FF47A720968B1FBF2F1491E4161072195
:102BE000016170471C00002010B5020014D00F488E
:102BF000806B38B1502080F31188BFF34F8FBFF343
:102C00006F8FFEE700F04CF800211046FFF708FD3B
:102C100000F08CF9002807D105494FF0805008607A
:102C2000BFF34F8FBFF36F8F10BD00002000002057
:102C300004ED00E010B586B00024039405AA04A9B1
:102C400003A80494FFF720FFDDE903010094CDE918
:102C5000011000230EA11048059A00F0D8F80F4982
:102C60000028486311D0502080F31188BFF34F8FA4
:102C7000BFF36F8F4FF0FF3008630120C8614C61D4
:102C800006B0BDE8104000F041B806B010BD00002D
:102C900049444C4500000000E127000820000020C6
:102CA0000248816B491C81637047000020000020AE
:102CB0001448816B11B101214162704700214162CA
:102CC0008169B1FA81F1C1F11F0101EB81020E4965
:102CD00051F822306BB101EB820101F108034A681F
:102CE00052684A609A4201D152684A60D1680160D4
:102CF0007047502080F31188BFF34F8FBFF36F8F61
:102D0000FEE7000020000020E40500201CB5264955
:102D100008780190FF20087008788DF800009DF871
:102D200000009DF8002000F0F000904207D05020F5
:102D300080F31188BFF34F8FBFF36F8FFEE79DF8CD
:102D400000001A4B00F0500018700720986005E052
:102D50009DF8002052008DF80020401E9DF80020B4
:102D60001206F5D49860032807D0502080F311880C
:102D7000BFF34F8FBFF36F8FFEE74FF44070986043
:102D8000019808700A48016841F470010160016807
:102D900041F070410160FFF715FF00205860FDF71A
:102DA000E3F900201CBD000000E400E074000020F6
:102DB00020ED00E02DE9FF5F8346DDE90E879946AF
:102DC00016468A469000FFF7CDFD05001CD0542022
:102DD000FFF7C8FD040014D00020256384F85100DB
:102DE000CDE90240CDE900874B4632465146584670
:102DF000FFF726FD2046FFF74BFC012004B0BDE89D
:102E0000F09F2846FFF7B0FE4FF0FF30F6E7F0B531
:102E100085B0DDE90B640A9DA6B1DCB154270097AB
:102E20002663022684F85160002604AFCDE90246ED
:102E3000CDE90057FFF704FD2046FFF729FC049871
:102E400005B0F0BD502080F31188BFF34F8FBFF362
:102E50006F8FFEE7502080F31188BFF34F8FBFF3D1
:102E60006F8FFEE72DE9F0412E4C0027A06B40B19B
:102E7000206A401C2062606A00B101273846BDE824
:102E8000F0816669761C666113D16068006838B1AC
:102E9000502080F31188BFF34F8FBFF36F8FFEE791
:102EA0006068A1686160A060A06A401CA062FFF732
:102EB00035FD206BDFF87080864209D360680068BA
:102EC00080B16068C068C568686886420DD22063BA
:102ED0002068C06A00EB800158F821000128CAD997
:102EE0000127C8E74FF0FF30F1E7281DFFF7B8FDD5
:102EF000A86A18B105F11800FFF7B2FDE86A0121D0
:102F0000A26981401143A16100EB800108EB8100BF
:102F1000291DFFF7E9FDE86A2168C96A8842CDD317
:102F20000127CBE720000020E40500202DE9F04731
:102F30002C4D00242746A86B38B1FFF7E1FDA86BA4
:102F4000401EA863A86B40B146E0502080F3118872
:102F5000BFF34F8FBFF36F8FFEE72969224E012029
:102F6000D1B3A6F1B40980463068E8B1F068C4680E
:102F700004F11800FFF774FD201DFFF771FDE06AF2
:102F8000AA6908FA00F11143A96100EB800109EB7D
:102F90008100211DFFF7A8FDE06A2968C96A8842FF
:102FA000E2D3C5F82480DFE70CB1FFF7B7FC2C6A49
:102FB00044B14646FFF756FF00B16E62641EF9D178
:102FC00000202862686A38B108490127380708607C
:102FD000BFF34F8FBFF36F8FFFF7B2FD3846BDE8E9
:102FE000F0870000200000209806002004ED00E09B
:102FF00000000000000000000000000000000404C9
:10300000040404040004000000140A0A0000000084
:1030100000000000000014143F140A3F0A0A0000D8
:1030200000041E1505060C14150F040000001215EF
:103030000D0A142C2A1200000000040A0A1E15159D
:10304000093600000002020100000000000000003C
:1030500000201008080808080810200000020408D2
:10306000080808080804020000000004150E0E15E8
:103070000400000000000404041F04040400000015
:10308000000000000000000000020201000000003B
:10309000001F000000000000000000000000000011
:1030A00000020000001008080804040202020100E7
:1030B00000000E1111111111110E00000000040684
:1030C00004040404040E000000000E1111080402A0
:1030D000011F000000000E11100C1010110E000056
:1030E0000000080C0A0A091E0818000000001F0151
:1030F000010F1010110E000000000E09010F111138
:10310000110E000000001F0908040404040400005C
:1031100000000E11110E1111110E000000000E1111
:1031200011111E10120E000000000000040000002B
:10313000000400000000000000040000000404007F
:103140000020100804020408102000000000000005
:103150001F00001F000000000002040810201008DB
:103160000402000000000E11110804040004000015
:1031700000000E111915151D011E000000000404A9
:103180000C0A0A1E1233000000000F12120E121257
:10319000120F000000001E1101010101110E0000BC
:1031A00000000F1212121212120F000000001F1264
:1031B0000A0E0A02121F000000001F120A0E0A0265
:1031C0000207000000001C1201013911120C00005E
:1031D00000003312121E12121233000000001F04EE
:1031E00004040404041F000000003E080808080846
:1031F00008090700000037120A060A0A1237000001
:103200000000070202020202223F000000001B1B16
:103210001B1B15151515000000003B1216161A1A77
:103220001217000000000E1111111111110E0000F3
:1032300000000F12120E02020207000000000E1121
:1032400011111117190E180000000F12120E0A1298
:103250001237000000001E1101060810110F0000B7
:1032600000001F1504040404040E000000003312C3
:1032700012121212120C000000003312120A0A0C71
:103280000404000000001515150E0A0A0A0A0000C1
:1032900000001B0A0A04040A0A1B000000001B0AA3
:1032A0000A040404040E000000001F0908040402BC
:1032B000121F0000001C04040404040404041C0085
:1032C000000202020404080808100000000E0808AA
:1032D0000808080808080E0000040A0000000000A2
:1032E0000000000000000000000000000000003F9F
:1032F00000040000000000000000000000000000CA
:10330000000C121C123C000000000302020E1212FC
:10331000120E000000000000001C1202021C00003F
:1033200000001810101C1212123C000000000000D7
:10333000000C121E021C000000003804041E0404CD
:10334000041E000000000000003C120C021E221CA3
:1033500000000302020E12121237000000000400E7
:1033600000060404040E000000000800000C080819
:103370000808080700000302023A0A0E123700008C
:103380000000070404040404041F000000000000FF
:10339000000F15151515000000000000000F121297
:1033A0001237000000000000000C1212120C000086
:1033B00000000000000F1212120E020700000000B1
:1033C000001C1212121C103800000000001B060224
:1033D0000207000000000000001E020C101E00008A
:1033E00000000004040E04040418000000000000A3
:1033F000001B1212123C0000000000000037120AED
:103400000C040000000000000015150E0A0A000060
:1034100000000000001B0A040A1B0000000000005E
:103420000037120A0C04040300000000001E080408
:10343000041E0000001808080804080808081800FE
:10344000080808080808080808080808000604040E
:10345000040804040404060002251800000000000B
:10346000000000000000000000000000000000005C
:103470000000000000000008080808080808000014
:103480001818000000486C24120000000000000022
:10349000000000000000002424247F1212127F127A
:1034A000121200000000081C2A2A0A0C1828282AD8
:1034B0002A1C080800000022251515152A58545406
:1034C000542200000000000C1212120A7625291165
:1034D000916E0000000606040300000000000000DA
:1034E000000000000040201010080808080808101C
:1034F00010204000000204080810101010101008DE
:10350000080402000000000008086B1C1C6B08087F
:103510000000000000000000080808087F080808F4
:103520000800000000000000000000000000000093
:10353000060604030000000000000000FE0000007A
:10354000000000000000000000000000000000007B
:1035500006060000000080404020201010080804EB
:103560000402020000000018244242424242424249
:1035700024180000000000080E08080808080808C1
:10358000083E00000000003C424242202010080497
:10359000427E00000000003C424220182040404291
:1035A000221C0000000000203028242422227E203B
:1035B000207800000000007E0202021A26404042ED
:1035C000221C0000000000382402021A2642424257
:1035D000241800000000007E2222101008080808AD
:1035E000080800000000003C4242422418244242E5
:1035F000423C00000000001824424242645840400F
:10360000241C00000000000000001818000000004A
:103610001818000000000000000000080000000072
:1036200000080804000000402010080402040810EC
:10363000204000000000000000007F0000007F002C
:1036400000000000000000020408102040201008C4
:10365000040200000000003C4242464020101000DE
:10366000181800000000001C225A555555552D42CF
:10367000221C00000000000808181414243C2242F8
:1036800042E700000000001F2222221E2242424286
:10369000221F00000000007C4242010101010142A2
:1036A000221C00000000001F2242424242424242CD
:1036B000221F00000000003F4212121E121202429E
:1036C000423F00000000003F4212121E121202028E
:1036D000020700000000003C2222010101712122AA
:1036E000221C0000000000E7424242427E42424269
:1036F00042E700000000003E080808080808080823
:10370000083E00000000007C101010101010101077
:103710001010110F0000007722120A0E0A12122256
:1037200022770000000000070202020202020202E9
:10373000427F000000000077363636362A2A2A2AD1
:103740002A6B0000000000E346464A4A5252526289
:10375000624700000000001C2241414141414141BB
:10376000221C00000000003F424242423E02020290
:10377000020700000000001C2241414141414D531D
:10378000321C60000000003F4242423E12122222E0
:1037900042C700000000007C424202041820404260
:1037A000423E00000000007F490808080808080899
:1037B000081C0000000000E74242424242424242EE
:1037C000423C0000000000E7424222242414141866
:1037D000080800000000006B494949495555362248
:1037E00022220000000000E7422424181818242494
:1037F00042E700000000007722221414080808089D
:10380000081C00000000007E212010100804044263
:10381000423F00000078080808080808080808085F
:1038200008087800000002020404080808101020AC
:1038300020204040001E101010101010101010100A
:1038400010101E00003844000000000000000000BE
:103850000000000000000000000000000000000068
:10386000000000FF0006080000000000000000004B
:1038700000000000000000000000003C42784442CC
:1038800042FC0000000000030202021A26424242EB
:10389000261A000000000000000000384402020266
:1038A00044380000000000604040407844424242FA
:1038B00064D80000000000000000003C427E0202CC
:1038C000423C0000000000F08808087E0808080854
:1038D000083E0000000000000000007C22221C02C4
:1038E0003C42423C000000030202023A464242428D
:1038F00042E700000000000C0C00000E0808080859
:10390000083E000000000030300000382020202059
:103910002020221E0000000302020272120A161268
:10392000227700000000000E0808080808080808B0
:10393000083E0000000000000000007F929292927A
:1039400092B70000000000000000003B46424242E7
:1039500042E70000000000000000003C42424242FA
:10396000423C0000000000000000001B26424242D2
:10397000221E02070000000000000078444242427C
:10398000447840E000000000000000774C0404048C
:10399000041F0000000000000000007C42023C40C8
:1039A000423E0000000000000008083E0808080829
:1039B0000830000000000000000000634242424264
:1039C00062DC000000000000000000E74224241434
:1039D0000808000000000000000000EB49495555B0
:1039E00022220000000000000000007624181818B1
:1039F000246E000000000000000000E742242414B0
:103A000018080807000000000000007E22100808C7
:103A1000447E000000C020202020201020202020F4
:103A20002020C000101010101010101010101010D6
:103A300010101010000608080808081008080808E8
:103A4000080806000C32C200000000000000000060
:103A5000000000000000000000001FE01FC06FD049
:103A600077B070307030703070307030703020103F
:103A700070307030703070307030703067D06FE000
:103A80001FE01FE000000000000038007800360052
:103A90002E000E000E000E000E000E0004000000AE
:103AA00004000E000E000E000E000E000E000E00B0
:103AB0000E0004000000000000003FF07FE07FE007
:103AC0003FD0003000300030003000301FD01FE009
:103AD0002FE077E070007000700060006FF05FF022
:103AE0003FF03FF00000000000003FF07FF07FE07B
:103AF0003FD0003000300030003000303FB07FD089
:103B00007FD03FB000300030003000303FD07FE049
:103B10007FF03FF000000000000020107030703097
:103B200070307030703070307030703037B00FD00F
:103B30000FD007B0003000300030003000300030CF
:103B4000003000100000000000001FF05FF06FF078
:103B500077F070007000700070003F801FC01FC0C1
:103B60000FB0003000300030003000303FD07FD048
:103B70007FE03FE00000000000001FF01FF06FF04A
:103B800077F07000700070007000700077C02FC078
:103B90006FD077B0703070307030703067D06FE0B9
:103BA0001FE01FE00000000000003FE07FE07FD04A
:103BB0003F90003000300030003000300030001006
:103BC0000010003000300030003000300030003095
:103BD000003000100000000000001FE01FC06FD088
:103BE00077B07030703070307030703077B02FD068
:103BF0006FF077B0703070307030703067D06FE039
:103C00001FE01FC00000000000001FE01FC06FD0B9
:103C100077B0703070307030703070306FB00FD05F
:103C20000FF00FB000300030003000303FD07FE0A8
:103C30007FE03FC000000000000000000000000026
:103C40000000000060006000200000000000000094
:103C50000000000020006000600000000000000084
:103C60000000000000000000000000000000000054
:103C70000000000000000000000000000000000044
:103C800000000000000000003C003C003C00000080
:103C900000000000CFB50000000C3FF8030006381C
:103CA0000C701FC0038C0E0C3FFE0DB60D98199CB6
:103CB000318C31866786CDB30000000018301BFFC1
:103CC000306036CC6CCC7D8619FE18DB30D87FD8BE
:103CD00070DB019B1F9B771FBCE00000000006C04B
:103CE00036FF36C0378037B03718060C00003FFE6D
:103CF00036663666366636667FFFBFD8000000003F
:103D00003060306037FF7EFB379E338C3F063800D3
:103D100031FC70603060306030607FFFA1E6C00031
:103D200023E82C18D808100830003000300030008C
:103D300030003000100018080C1003E00000CEC264
:103D40000000000000001000000C7FF00440200480
:103D50004020014020027FE062402032402012409B
:103D600020047FE004000005001004FFF80889101B
:103D70007889101889101889101889101889101856
:103D800089160776E8000000CAAA000000000000BB
:103D9000100010087FF80C601004601001601042E1
:103DA0007FF03260101A6010127FF004690004087E
:103DB0008005088C08888C18C8983848901868A026
:103DC0001048C010088030088010088C03F770007D
:103DD0000000B6C8000000001000000800000C0839
:103DE0000FFFFC0840000830C008208808209C0F06
:103DF000FFE0082080082080083F8008000019FFAD
:103E0000E01820C0102080101180100B0020060048
:103E1000201B804060FE478018000000B5E70000CE
:103E2000000000000018000010000010000010004A
:103E30000FFFF00810200810200810200810200F95
:103E4000FFE00810200810200810200810200FFFA5
:103E5000E008100000100800100800100400180C02
:103E6000000FF8000000D1B90000000000000000C1
:103E7000180FFFFC0C00000C0C000C0C000C0C00CC
:103E80000C0C000C0C000C0C000DFFF00C0C000CCA
:103E90000C00080C80080C40080C60080C30100C5A
:103EA00020100C00200C0C27F3F040000000000054
:103EB000C1F700000000080000060008020804FF27
:103EC000FC060400000400010840411020312030AD
:103ED000127FD0120010046460046440046440083F
:103EE000644078644018444018444418C44418841A
:103EF0004419047E060400000000A1E60000000052
:103F000000000000000C0000121F801230681260D8
:103F1000180CC01800800801800801800001800092
:103F200001800001800001800000800000C00000CE
:103F3000C0100060200038C0000F0000000000002A
:103F400000000000A3BA0000000000000000000014
:103F50000000000000000000000000000000000061
:103F6000000000000000000000000000001C000035
:103F70001C00000C00000000000000000C00001CF1
:103F800000001C0000000000000000000000A3A5CD
:103F900000000000000000000000000007001808FA
:103FA00080300880600880C0088180088100088215
:103FB000000504000208000011E00021100041107B
:103FC0000083100103100201100401100800E0003A
:103FD0000000000000000000A3D600000000000068
:103FE0000000000000000FC1F0030040030040018A
:103FF000008001808001810000C10000C3000062D8
:1040000000006200002400003400001800001800C6
:104010000018000000000000000000000000000088
:104020000000A3C10000000000000000000000002C
:10403000000000000800001800001C00002C000018
:10404000240000660000460000C30000830000FF5B
:10405000000101800101800200C00200C00F83F056
:10406000000000000000000000000000D7D60000A3
:10407000000000060000000300000000C000000176
:10408000C0C0000107C00001FF00021FFE0007F0D2
:104090001C0007C070000F00E0000E03F0001C0FB2
:1040A000F0003C0F70003C00E0001800C000000071
:1040B000C0000000C0000000600000002000000000
:1040C00037000001FF00007FF80007F830001F8074
:1040D00030000080300000C0300000606000001838
:1040E000E000000FC000000600000000000000001B
:1040F00068410008B920000800000000000000002E
:104100008000000000000000000000007441000872
:10411000CD2000080000000000000000800000002A
:1041200000000000000000005C410008C5200008FD
:10413000FDFF000000000000800000000000000003
:104140000000000000000000000000000102030465
:104150000607080900000000010203046D7954619C
:10416000736B30330000000064656661756C7454D5
:1041700061736B00476574456E636F646572000020
:10418000A041000800000020800000002225000857
:104190002042000880000020581600003225000848
:1041A0000000FFFF00000000000000000000000011
:1041B0000100000010000000000000000024F400D6
:1041C00000000000000000000000000000000000EF
:1041D00000000000000000000000000000000000DF
:1041E00000000000000000000000000000000000CF
:1041F00000000000000000000000000000000000BF
:1042000000000000000000000000000000000000AE
:104210000000000000000000AAAAAAAA00000000F6
:0400000508000131BD
:00000001FF
